{
  "_format": "hh-sol-artifact-1",
  "contractName": "CyberSyndicate",
  "sourceName": "contracts/NFT_CSE.sol",
  "abi": [
    {
      "inputs": [
        {
          "internalType": "uint256",
          "name": "_minGasToTransferAndStore",
          "type": "uint256"
        },
        {
          "internalType": "address",
          "name": "_lzEndpoint",
          "type": "address"
        }
      ],
      "stateMutability": "nonpayable",
      "type": "constructor"
    },
    {
      "inputs": [],
      "name": "ApprovalCallerNotOwnerNorApproved",
      "type": "error"
    },
    {
      "inputs": [],
      "name": "ApprovalQueryForNonexistentToken",
      "type": "error"
    },
    {
      "inputs": [],
      "name": "BalanceQueryForZeroAddress",
      "type": "error"
    },
    {
      "inputs": [],
      "name": "MintERC2309QuantityExceedsLimit",
      "type": "error"
    },
    {
      "inputs": [],
      "name": "MintToZeroAddress",
      "type": "error"
    },
    {
      "inputs": [],
      "name": "MintZeroQuantity",
      "type": "error"
    },
    {
      "inputs": [
        {
          "internalType": "address",
          "name": "operator",
          "type": "address"
        }
      ],
      "name": "OperatorNotAllowed",
      "type": "error"
    },
    {
      "inputs": [],
      "name": "OwnerQueryForNonexistentToken",
      "type": "error"
    },
    {
      "inputs": [],
      "name": "OwnershipNotInitializedForExtraData",
      "type": "error"
    },
    {
      "inputs": [],
      "name": "TransferCallerNotOwnerNorApproved",
      "type": "error"
    },
    {
      "inputs": [],
      "name": "TransferFromIncorrectOwner",
      "type": "error"
    },
    {
      "inputs": [],
      "name": "TransferToNonERC721ReceiverImplementer",
      "type": "error"
    },
    {
      "inputs": [],
      "name": "TransferToZeroAddress",
      "type": "error"
    },
    {
      "inputs": [],
      "name": "URIQueryForNonexistentToken",
      "type": "error"
    },
    {
      "anonymous": false,
      "inputs": [
        {
          "indexed": true,
          "internalType": "address",
          "name": "owner",
          "type": "address"
        },
        {
          "indexed": true,
          "internalType": "address",
          "name": "approved",
          "type": "address"
        },
        {
          "indexed": true,
          "internalType": "uint256",
          "name": "tokenId",
          "type": "uint256"
        }
      ],
      "name": "Approval",
      "type": "event"
    },
    {
      "anonymous": false,
      "inputs": [
        {
          "indexed": true,
          "internalType": "address",
          "name": "owner",
          "type": "address"
        },
        {
          "indexed": true,
          "internalType": "address",
          "name": "operator",
          "type": "address"
        },
        {
          "indexed": false,
          "internalType": "bool",
          "name": "approved",
          "type": "bool"
        }
      ],
      "name": "ApprovalForAll",
      "type": "event"
    },
    {
      "anonymous": false,
      "inputs": [
        {
          "indexed": true,
          "internalType": "uint256",
          "name": "fromTokenId",
          "type": "uint256"
        },
        {
          "indexed": false,
          "internalType": "uint256",
          "name": "toTokenId",
          "type": "uint256"
        },
        {
          "indexed": true,
          "internalType": "address",
          "name": "from",
          "type": "address"
        },
        {
          "indexed": true,
          "internalType": "address",
          "name": "to",
          "type": "address"
        }
      ],
      "name": "ConsecutiveTransfer",
      "type": "event"
    },
    {
      "anonymous": false,
      "inputs": [
        {
          "indexed": false,
          "internalType": "bytes32",
          "name": "_hashedPayload",
          "type": "bytes32"
        }
      ],
      "name": "CreditCleared",
      "type": "event"
    },
    {
      "anonymous": false,
      "inputs": [
        {
          "indexed": false,
          "internalType": "bytes32",
          "name": "_hashedPayload",
          "type": "bytes32"
        },
        {
          "indexed": false,
          "internalType": "bytes",
          "name": "_payload",
          "type": "bytes"
        }
      ],
      "name": "CreditStored",
      "type": "event"
    },
    {
      "anonymous": false,
      "inputs": [
        {
          "indexed": false,
          "internalType": "uint16",
          "name": "_srcChainId",
          "type": "uint16"
        },
        {
          "indexed": false,
          "internalType": "bytes",
          "name": "_srcAddress",
          "type": "bytes"
        },
        {
          "indexed": false,
          "internalType": "uint64",
          "name": "_nonce",
          "type": "uint64"
        },
        {
          "indexed": false,
          "internalType": "bytes",
          "name": "_payload",
          "type": "bytes"
        },
        {
          "indexed": false,
          "internalType": "bytes",
          "name": "_reason",
          "type": "bytes"
        }
      ],
      "name": "MessageFailed",
      "type": "event"
    },
    {
      "anonymous": false,
      "inputs": [
        {
          "indexed": true,
          "internalType": "address",
          "name": "previousOwner",
          "type": "address"
        },
        {
          "indexed": true,
          "internalType": "address",
          "name": "newOwner",
          "type": "address"
        }
      ],
      "name": "OwnershipTransferred",
      "type": "event"
    },
    {
      "anonymous": false,
      "inputs": [
        {
          "indexed": true,
          "internalType": "uint16",
          "name": "_srcChainId",
          "type": "uint16"
        },
        {
          "indexed": true,
          "internalType": "bytes",
          "name": "_srcAddress",
          "type": "bytes"
        },
        {
          "indexed": true,
          "internalType": "address",
          "name": "_toAddress",
          "type": "address"
        },
        {
          "indexed": false,
          "internalType": "uint256[]",
          "name": "_tokenIds",
          "type": "uint256[]"
        }
      ],
      "name": "ReceiveFromChain",
      "type": "event"
    },
    {
      "anonymous": false,
      "inputs": [
        {
          "indexed": false,
          "internalType": "uint16",
          "name": "_srcChainId",
          "type": "uint16"
        },
        {
          "indexed": false,
          "internalType": "bytes",
          "name": "_srcAddress",
          "type": "bytes"
        },
        {
          "indexed": false,
          "internalType": "uint64",
          "name": "_nonce",
          "type": "uint64"
        },
        {
          "indexed": false,
          "internalType": "bytes32",
          "name": "_payloadHash",
          "type": "bytes32"
        }
      ],
      "name": "RetryMessageSuccess",
      "type": "event"
    },
    {
      "anonymous": false,
      "inputs": [
        {
          "indexed": true,
          "internalType": "uint16",
          "name": "_dstChainId",
          "type": "uint16"
        },
        {
          "indexed": true,
          "internalType": "address",
          "name": "_from",
          "type": "address"
        },
        {
          "indexed": true,
          "internalType": "bytes",
          "name": "_toAddress",
          "type": "bytes"
        },
        {
          "indexed": false,
          "internalType": "uint256[]",
          "name": "_tokenIds",
          "type": "uint256[]"
        }
      ],
      "name": "SendToChain",
      "type": "event"
    },
    {
      "anonymous": false,
      "inputs": [
        {
          "indexed": false,
          "internalType": "uint16",
          "name": "_dstChainId",
          "type": "uint16"
        },
        {
          "indexed": false,
          "internalType": "uint16",
          "name": "_type",
          "type": "uint16"
        },
        {
          "indexed": false,
          "internalType": "uint256",
          "name": "_minDstGas",
          "type": "uint256"
        }
      ],
      "name": "SetMinDstGas",
      "type": "event"
    },
    {
      "anonymous": false,
      "inputs": [
        {
          "indexed": false,
          "internalType": "address",
          "name": "precrime",
          "type": "address"
        }
      ],
      "name": "SetPrecrime",
      "type": "event"
    },
    {
      "anonymous": false,
      "inputs": [
        {
          "indexed": false,
          "internalType": "uint16",
          "name": "_remoteChainId",
          "type": "uint16"
        },
        {
          "indexed": false,
          "internalType": "bytes",
          "name": "_path",
          "type": "bytes"
        }
      ],
      "name": "SetTrustedRemote",
      "type": "event"
    },
    {
      "anonymous": false,
      "inputs": [
        {
          "indexed": false,
          "internalType": "uint16",
          "name": "_remoteChainId",
          "type": "uint16"
        },
        {
          "indexed": false,
          "internalType": "bytes",
          "name": "_remoteAddress",
          "type": "bytes"
        }
      ],
      "name": "SetTrustedRemoteAddress",
      "type": "event"
    },
    {
      "anonymous": false,
      "inputs": [
        {
          "indexed": true,
          "internalType": "address",
          "name": "from",
          "type": "address"
        },
        {
          "indexed": true,
          "internalType": "address",
          "name": "to",
          "type": "address"
        },
        {
          "indexed": true,
          "internalType": "uint256",
          "name": "tokenId",
          "type": "uint256"
        }
      ],
      "name": "Transfer",
      "type": "event"
    },
    {
      "inputs": [],
      "name": "DEFAULT_PAYLOAD_SIZE_LIMIT",
      "outputs": [
        {
          "internalType": "uint256",
          "name": "",
          "type": "uint256"
        }
      ],
      "stateMutability": "view",
      "type": "function"
    },
    {
      "inputs": [],
      "name": "FUNCTION_TYPE_SEND",
      "outputs": [
        {
          "internalType": "uint16",
          "name": "",
          "type": "uint16"
        }
      ],
      "stateMutability": "view",
      "type": "function"
    },
    {
      "inputs": [],
      "name": "OPERATOR_FILTER_REGISTRY",
      "outputs": [
        {
          "internalType": "contract IOperatorFilterRegistry",
          "name": "",
          "type": "address"
        }
      ],
      "stateMutability": "view",
      "type": "function"
    },
    {
      "inputs": [],
      "name": "addressLimit",
      "outputs": [
        {
          "internalType": "uint256",
          "name": "",
          "type": "uint256"
        }
      ],
      "stateMutability": "view",
      "type": "function"
    },
    {
      "inputs": [
        {
          "internalType": "address",
          "name": "",
          "type": "address"
        }
      ],
      "name": "addressMintedBalance",
      "outputs": [
        {
          "internalType": "uint256",
          "name": "",
          "type": "uint256"
        }
      ],
      "stateMutability": "view",
      "type": "function"
    },
    {
      "inputs": [
        {
          "internalType": "address[]",
          "name": "_sendNftsTo",
          "type": "address[]"
        },
        {
          "internalType": "uint256",
          "name": "_howMany",
          "type": "uint256"
        }
      ],
      "name": "airdrop",
      "outputs": [],
      "stateMutability": "nonpayable",
      "type": "function"
    },
    {
      "inputs": [
        {
          "internalType": "address",
          "name": "operator",
          "type": "address"
        },
        {
          "internalType": "uint256",
          "name": "tokenId",
          "type": "uint256"
        }
      ],
      "name": "approve",
      "outputs": [],
      "stateMutability": "payable",
      "type": "function"
    },
    {
      "inputs": [
        {
          "internalType": "address",
          "name": "owner",
          "type": "address"
        }
      ],
      "name": "balanceOf",
      "outputs": [
        {
          "internalType": "uint256",
          "name": "",
          "type": "uint256"
        }
      ],
      "stateMutability": "view",
      "type": "function"
    },
    {
      "inputs": [
        {
          "internalType": "bytes",
          "name": "_payload",
          "type": "bytes"
        }
      ],
      "name": "clearCredits",
      "outputs": [],
      "stateMutability": "nonpayable",
      "type": "function"
    },
    {
      "inputs": [],
      "name": "costPerNft",
      "outputs": [
        {
          "internalType": "uint256",
          "name": "",
          "type": "uint256"
        }
      ],
      "stateMutability": "view",
      "type": "function"
    },
    {
      "inputs": [
        {
          "internalType": "uint16",
          "name": "",
          "type": "uint16"
        }
      ],
      "name": "dstChainIdToBatchLimit",
      "outputs": [
        {
          "internalType": "uint256",
          "name": "",
          "type": "uint256"
        }
      ],
      "stateMutability": "view",
      "type": "function"
    },
    {
      "inputs": [
        {
          "internalType": "uint16",
          "name": "",
          "type": "uint16"
        }
      ],
      "name": "dstChainIdToTransferGas",
      "outputs": [
        {
          "internalType": "uint256",
          "name": "",
          "type": "uint256"
        }
      ],
      "stateMutability": "view",
      "type": "function"
    },
    {
      "inputs": [
        {
          "internalType": "uint16",
          "name": "_dstChainId",
          "type": "uint16"
        },
        {
          "internalType": "bytes",
          "name": "_toAddress",
          "type": "bytes"
        },
        {
          "internalType": "uint256[]",
          "name": "_tokenIds",
          "type": "uint256[]"
        },
        {
          "internalType": "bool",
          "name": "_useZro",
          "type": "bool"
        },
        {
          "internalType": "bytes",
          "name": "_adapterParams",
          "type": "bytes"
        }
      ],
      "name": "estimateSendBatchFee",
      "outputs": [
        {
          "internalType": "uint256",
          "name": "nativeFee",
          "type": "uint256"
        },
        {
          "internalType": "uint256",
          "name": "zroFee",
          "type": "uint256"
        }
      ],
      "stateMutability": "view",
      "type": "function"
    },
    {
      "inputs": [
        {
          "internalType": "uint16",
          "name": "_dstChainId",
          "type": "uint16"
        },
        {
          "internalType": "bytes",
          "name": "_toAddress",
          "type": "bytes"
        },
        {
          "internalType": "uint256",
          "name": "_tokenId",
          "type": "uint256"
        },
        {
          "internalType": "bool",
          "name": "_useZro",
          "type": "bool"
        },
        {
          "internalType": "bytes",
          "name": "_adapterParams",
          "type": "bytes"
        }
      ],
      "name": "estimateSendFee",
      "outputs": [
        {
          "internalType": "uint256",
          "name": "nativeFee",
          "type": "uint256"
        },
        {
          "internalType": "uint256",
          "name": "zroFee",
          "type": "uint256"
        }
      ],
      "stateMutability": "view",
      "type": "function"
    },
    {
      "inputs": [
        {
          "internalType": "uint16",
          "name": "",
          "type": "uint16"
        },
        {
          "internalType": "bytes",
          "name": "",
          "type": "bytes"
        },
        {
          "internalType": "uint64",
          "name": "",
          "type": "uint64"
        }
      ],
      "name": "failedMessages",
      "outputs": [
        {
          "internalType": "bytes32",
          "name": "",
          "type": "bytes32"
        }
      ],
      "stateMutability": "view",
      "type": "function"
    },
    {
      "inputs": [
        {
          "internalType": "uint16",
          "name": "_srcChainId",
          "type": "uint16"
        },
        {
          "internalType": "bytes",
          "name": "_srcAddress",
          "type": "bytes"
        }
      ],
      "name": "forceResumeReceive",
      "outputs": [],
      "stateMutability": "nonpayable",
      "type": "function"
    },
    {
      "inputs": [
        {
          "internalType": "uint256",
          "name": "tokenId",
          "type": "uint256"
        }
      ],
      "name": "getApproved",
      "outputs": [
        {
          "internalType": "address",
          "name": "",
          "type": "address"
        }
      ],
      "stateMutability": "view",
      "type": "function"
    },
    {
      "inputs": [
        {
          "internalType": "uint16",
          "name": "_version",
          "type": "uint16"
        },
        {
          "internalType": "uint16",
          "name": "_chainId",
          "type": "uint16"
        },
        {
          "internalType": "address",
          "name": "",
          "type": "address"
        },
        {
          "internalType": "uint256",
          "name": "_configType",
          "type": "uint256"
        }
      ],
      "name": "getConfig",
      "outputs": [
        {
          "internalType": "bytes",
          "name": "",
          "type": "bytes"
        }
      ],
      "stateMutability": "view",
      "type": "function"
    },
    {
      "inputs": [
        {
          "internalType": "uint16",
          "name": "_remoteChainId",
          "type": "uint16"
        }
      ],
      "name": "getTrustedRemoteAddress",
      "outputs": [
        {
          "internalType": "bytes",
          "name": "",
          "type": "bytes"
        }
      ],
      "stateMutability": "view",
      "type": "function"
    },
    {
      "inputs": [
        {
          "internalType": "address[]",
          "name": "_sendNftsTo",
          "type": "address[]"
        },
        {
          "internalType": "uint256",
          "name": "_howMany",
          "type": "uint256"
        }
      ],
      "name": "giftNft",
      "outputs": [],
      "stateMutability": "nonpayable",
      "type": "function"
    },
    {
      "inputs": [
        {
          "internalType": "address",
          "name": "owner",
          "type": "address"
        },
        {
          "internalType": "address",
          "name": "operator",
          "type": "address"
        }
      ],
      "name": "isApprovedForAll",
      "outputs": [
        {
          "internalType": "bool",
          "name": "",
          "type": "bool"
        }
      ],
      "stateMutability": "view",
      "type": "function"
    },
    {
      "inputs": [
        {
          "internalType": "uint16",
          "name": "_srcChainId",
          "type": "uint16"
        },
        {
          "internalType": "bytes",
          "name": "_srcAddress",
          "type": "bytes"
        }
      ],
      "name": "isTrustedRemote",
      "outputs": [
        {
          "internalType": "bool",
          "name": "",
          "type": "bool"
        }
      ],
      "stateMutability": "view",
      "type": "function"
    },
    {
      "inputs": [],
      "name": "lzEndpoint",
      "outputs": [
        {
          "internalType": "contract ILayerZeroEndpoint",
          "name": "",
          "type": "address"
        }
      ],
      "stateMutability": "view",
      "type": "function"
    },
    {
      "inputs": [
        {
          "internalType": "uint16",
          "name": "_srcChainId",
          "type": "uint16"
        },
        {
          "internalType": "bytes",
          "name": "_srcAddress",
          "type": "bytes"
        },
        {
          "internalType": "uint64",
          "name": "_nonce",
          "type": "uint64"
        },
        {
          "internalType": "bytes",
          "name": "_payload",
          "type": "bytes"
        }
      ],
      "name": "lzReceive",
      "outputs": [],
      "stateMutability": "nonpayable",
      "type": "function"
    },
    {
      "inputs": [],
      "name": "maxMintAmount",
      "outputs": [
        {
          "internalType": "uint256",
          "name": "",
          "type": "uint256"
        }
      ],
      "stateMutability": "view",
      "type": "function"
    },
    {
      "inputs": [],
      "name": "maxSupply",
      "outputs": [
        {
          "internalType": "uint256",
          "name": "",
          "type": "uint256"
        }
      ],
      "stateMutability": "view",
      "type": "function"
    },
    {
      "inputs": [],
      "name": "metadataFolderIpfsLink",
      "outputs": [
        {
          "internalType": "string",
          "name": "",
          "type": "string"
        }
      ],
      "stateMutability": "view",
      "type": "function"
    },
    {
      "inputs": [
        {
          "internalType": "uint16",
          "name": "",
          "type": "uint16"
        },
        {
          "internalType": "uint16",
          "name": "",
          "type": "uint16"
        }
      ],
      "name": "minDstGasLookup",
      "outputs": [
        {
          "internalType": "uint256",
          "name": "",
          "type": "uint256"
        }
      ],
      "stateMutability": "view",
      "type": "function"
    },
    {
      "inputs": [],
      "name": "minGasToTransferAndStore",
      "outputs": [
        {
          "internalType": "uint256",
          "name": "",
          "type": "uint256"
        }
      ],
      "stateMutability": "view",
      "type": "function"
    },
    {
      "inputs": [],
      "name": "name",
      "outputs": [
        {
          "internalType": "string",
          "name": "",
          "type": "string"
        }
      ],
      "stateMutability": "view",
      "type": "function"
    },
    {
      "inputs": [],
      "name": "nftsForOwner",
      "outputs": [
        {
          "internalType": "uint256",
          "name": "",
          "type": "uint256"
        }
      ],
      "stateMutability": "view",
      "type": "function"
    },
    {
      "inputs": [
        {
          "internalType": "uint16",
          "name": "_srcChainId",
          "type": "uint16"
        },
        {
          "internalType": "bytes",
          "name": "_srcAddress",
          "type": "bytes"
        },
        {
          "internalType": "uint64",
          "name": "_nonce",
          "type": "uint64"
        },
        {
          "internalType": "bytes",
          "name": "_payload",
          "type": "bytes"
        }
      ],
      "name": "nonblockingLzReceive",
      "outputs": [],
      "stateMutability": "nonpayable",
      "type": "function"
    },
    {
      "inputs": [],
      "name": "owner",
      "outputs": [
        {
          "internalType": "address",
          "name": "",
          "type": "address"
        }
      ],
      "stateMutability": "view",
      "type": "function"
    },
    {
      "inputs": [
        {
          "internalType": "uint256",
          "name": "tokenId",
          "type": "uint256"
        }
      ],
      "name": "ownerOf",
      "outputs": [
        {
          "internalType": "address",
          "name": "",
          "type": "address"
        }
      ],
      "stateMutability": "view",
      "type": "function"
    },
    {
      "inputs": [
        {
          "internalType": "uint16",
          "name": "",
          "type": "uint16"
        }
      ],
      "name": "payloadSizeLimitLookup",
      "outputs": [
        {
          "internalType": "uint256",
          "name": "",
          "type": "uint256"
        }
      ],
      "stateMutability": "view",
      "type": "function"
    },
    {
      "inputs": [],
      "name": "precrime",
      "outputs": [
        {
          "internalType": "address",
          "name": "",
          "type": "address"
        }
      ],
      "stateMutability": "view",
      "type": "function"
    },
    {
      "inputs": [],
      "name": "publicmintActiveTime",
      "outputs": [
        {
          "internalType": "uint256",
          "name": "",
          "type": "uint256"
        }
      ],
      "stateMutability": "view",
      "type": "function"
    },
    {
      "inputs": [
        {
          "internalType": "uint256",
          "name": "_mintAmount",
          "type": "uint256"
        }
      ],
      "name": "purchaseTokens",
      "outputs": [],
      "stateMutability": "payable",
      "type": "function"
    },
    {
      "inputs": [],
      "name": "renounceOwnership",
      "outputs": [],
      "stateMutability": "nonpayable",
      "type": "function"
    },
    {
      "inputs": [
        {
          "internalType": "uint16",
          "name": "_srcChainId",
          "type": "uint16"
        },
        {
          "internalType": "bytes",
          "name": "_srcAddress",
          "type": "bytes"
        },
        {
          "internalType": "uint64",
          "name": "_nonce",
          "type": "uint64"
        },
        {
          "internalType": "bytes",
          "name": "_payload",
          "type": "bytes"
        }
      ],
      "name": "retryMessage",
      "outputs": [],
      "stateMutability": "payable",
      "type": "function"
    },
    {
      "inputs": [
        {
          "internalType": "uint256",
          "name": "_tokenId",
          "type": "uint256"
        },
        {
          "internalType": "uint256",
          "name": "_salePrice",
          "type": "uint256"
        }
      ],
      "name": "royaltyInfo",
      "outputs": [
        {
          "internalType": "address",
          "name": "",
          "type": "address"
        },
        {
          "internalType": "uint256",
          "name": "",
          "type": "uint256"
        }
      ],
      "stateMutability": "view",
      "type": "function"
    },
    {
      "inputs": [
        {
          "internalType": "address",
          "name": "from",
          "type": "address"
        },
        {
          "internalType": "address",
          "name": "to",
          "type": "address"
        },
        {
          "internalType": "uint256",
          "name": "tokenId",
          "type": "uint256"
        }
      ],
      "name": "safeTransferFrom",
      "outputs": [],
      "stateMutability": "payable",
      "type": "function"
    },
    {
      "inputs": [
        {
          "internalType": "address",
          "name": "from",
          "type": "address"
        },
        {
          "internalType": "address",
          "name": "to",
          "type": "address"
        },
        {
          "internalType": "uint256",
          "name": "tokenId",
          "type": "uint256"
        },
        {
          "internalType": "bytes",
          "name": "data",
          "type": "bytes"
        }
      ],
      "name": "safeTransferFrom",
      "outputs": [],
      "stateMutability": "payable",
      "type": "function"
    },
    {
      "inputs": [
        {
          "internalType": "address",
          "name": "_from",
          "type": "address"
        },
        {
          "internalType": "uint16",
          "name": "_dstChainId",
          "type": "uint16"
        },
        {
          "internalType": "bytes",
          "name": "_toAddress",
          "type": "bytes"
        },
        {
          "internalType": "uint256[]",
          "name": "_tokenIds",
          "type": "uint256[]"
        },
        {
          "internalType": "address payable",
          "name": "_refundAddress",
          "type": "address"
        },
        {
          "internalType": "address",
          "name": "_zroPaymentAddress",
          "type": "address"
        },
        {
          "internalType": "bytes",
          "name": "_adapterParams",
          "type": "bytes"
        }
      ],
      "name": "sendBatchFrom",
      "outputs": [],
      "stateMutability": "payable",
      "type": "function"
    },
    {
      "inputs": [
        {
          "internalType": "address",
          "name": "_from",
          "type": "address"
        },
        {
          "internalType": "uint16",
          "name": "_dstChainId",
          "type": "uint16"
        },
        {
          "internalType": "bytes",
          "name": "_toAddress",
          "type": "bytes"
        },
        {
          "internalType": "uint256",
          "name": "_tokenId",
          "type": "uint256"
        },
        {
          "internalType": "address payable",
          "name": "_refundAddress",
          "type": "address"
        },
        {
          "internalType": "address",
          "name": "_zroPaymentAddress",
          "type": "address"
        },
        {
          "internalType": "bytes",
          "name": "_adapterParams",
          "type": "bytes"
        }
      ],
      "name": "sendFrom",
      "outputs": [],
      "stateMutability": "payable",
      "type": "function"
    },
    {
      "inputs": [
        {
          "internalType": "address[]",
          "name": "adds",
          "type": "address[]"
        }
      ],
      "name": "sendPreMintedNFT",
      "outputs": [],
      "stateMutability": "nonpayable",
      "type": "function"
    },
    {
      "inputs": [
        {
          "internalType": "address",
          "name": "operator",
          "type": "address"
        },
        {
          "internalType": "bool",
          "name": "approved",
          "type": "bool"
        }
      ],
      "name": "setApprovalForAll",
      "outputs": [],
      "stateMutability": "nonpayable",
      "type": "function"
    },
    {
      "inputs": [
        {
          "internalType": "uint16",
          "name": "_version",
          "type": "uint16"
        },
        {
          "internalType": "uint16",
          "name": "_chainId",
          "type": "uint16"
        },
        {
          "internalType": "uint256",
          "name": "_configType",
          "type": "uint256"
        },
        {
          "internalType": "bytes",
          "name": "_config",
          "type": "bytes"
        }
      ],
      "name": "setConfig",
      "outputs": [],
      "stateMutability": "nonpayable",
      "type": "function"
    },
    {
      "inputs": [
        {
          "internalType": "uint256",
          "name": "_newCostPerNft",
          "type": "uint256"
        }
      ],
      "name": "setCostPerNft",
      "outputs": [],
      "stateMutability": "nonpayable",
      "type": "function"
    },
    {
      "inputs": [
        {
          "internalType": "address",
          "name": "_receiver",
          "type": "address"
        },
        {
          "internalType": "uint96",
          "name": "_feeNumerator",
          "type": "uint96"
        }
      ],
      "name": "setDefaultRoyalty",
      "outputs": [],
      "stateMutability": "nonpayable",
      "type": "function"
    },
    {
      "inputs": [
        {
          "internalType": "uint16",
          "name": "_dstChainId",
          "type": "uint16"
        },
        {
          "internalType": "uint256",
          "name": "_dstChainIdToBatchLimit",
          "type": "uint256"
        }
      ],
      "name": "setDstChainIdToBatchLimit",
      "outputs": [],
      "stateMutability": "nonpayable",
      "type": "function"
    },
    {
      "inputs": [
        {
          "internalType": "uint16",
          "name": "_dstChainId",
          "type": "uint16"
        },
        {
          "internalType": "uint256",
          "name": "_dstChainIdToTransferGas",
          "type": "uint256"
        }
      ],
      "name": "setDstChainIdToTransferGas",
      "outputs": [],
      "stateMutability": "nonpayable",
      "type": "function"
    },
    {
      "inputs": [
        {
          "internalType": "uint256",
          "name": "_newmaxMintAmount",
          "type": "uint256"
        }
      ],
      "name": "setMaxMintAmount",
      "outputs": [],
      "stateMutability": "nonpayable",
      "type": "function"
    },
    {
      "inputs": [
        {
          "internalType": "string",
          "name": "_newMetadataFolderIpfsLink",
          "type": "string"
        }
      ],
      "name": "setMetadataFolderIpfsLink",
      "outputs": [],
      "stateMutability": "nonpayable",
      "type": "function"
    },
    {
      "inputs": [
        {
          "internalType": "uint16",
          "name": "_dstChainId",
          "type": "uint16"
        },
        {
          "internalType": "uint16",
          "name": "_packetType",
          "type": "uint16"
        },
        {
          "internalType": "uint256",
          "name": "_minGas",
          "type": "uint256"
        }
      ],
      "name": "setMinDstGas",
      "outputs": [],
      "stateMutability": "nonpayable",
      "type": "function"
    },
    {
      "inputs": [
        {
          "internalType": "uint256",
          "name": "_minGasToTransferAndStore",
          "type": "uint256"
        }
      ],
      "name": "setMinGasToTransferAndStore",
      "outputs": [],
      "stateMutability": "nonpayable",
      "type": "function"
    },
    {
      "inputs": [
        {
          "internalType": "uint16",
          "name": "_dstChainId",
          "type": "uint16"
        },
        {
          "internalType": "uint256",
          "name": "_size",
          "type": "uint256"
        }
      ],
      "name": "setPayloadSizeLimit",
      "outputs": [],
      "stateMutability": "nonpayable",
      "type": "function"
    },
    {
      "inputs": [
        {
          "internalType": "address",
          "name": "_precrime",
          "type": "address"
        }
      ],
      "name": "setPrecrime",
      "outputs": [],
      "stateMutability": "nonpayable",
      "type": "function"
    },
    {
      "inputs": [
        {
          "internalType": "uint16",
          "name": "_version",
          "type": "uint16"
        }
      ],
      "name": "setReceiveVersion",
      "outputs": [],
      "stateMutability": "nonpayable",
      "type": "function"
    },
    {
      "inputs": [
        {
          "internalType": "uint256",
          "name": "_publicmintActiveTime",
          "type": "uint256"
        }
      ],
      "name": "setSaleActiveTime",
      "outputs": [],
      "stateMutability": "nonpayable",
      "type": "function"
    },
    {
      "inputs": [
        {
          "internalType": "uint16",
          "name": "_version",
          "type": "uint16"
        }
      ],
      "name": "setSendVersion",
      "outputs": [],
      "stateMutability": "nonpayable",
      "type": "function"
    },
    {
      "inputs": [
        {
          "internalType": "uint16",
          "name": "_srcChainId",
          "type": "uint16"
        },
        {
          "internalType": "bytes",
          "name": "_path",
          "type": "bytes"
        }
      ],
      "name": "setTrustedRemote",
      "outputs": [],
      "stateMutability": "nonpayable",
      "type": "function"
    },
    {
      "inputs": [
        {
          "internalType": "uint16",
          "name": "_remoteChainId",
          "type": "uint16"
        },
        {
          "internalType": "bytes",
          "name": "_remoteAddress",
          "type": "bytes"
        }
      ],
      "name": "setTrustedRemoteAddress",
      "outputs": [],
      "stateMutability": "nonpayable",
      "type": "function"
    },
    {
      "inputs": [
        {
          "internalType": "uint256",
          "name": "_newnftsForOwner",
          "type": "uint256"
        }
      ],
      "name": "setnftsForOwner",
      "outputs": [],
      "stateMutability": "nonpayable",
      "type": "function"
    },
    {
      "inputs": [
        {
          "internalType": "bytes32",
          "name": "",
          "type": "bytes32"
        }
      ],
      "name": "storedCredits",
      "outputs": [
        {
          "internalType": "uint16",
          "name": "srcChainId",
          "type": "uint16"
        },
        {
          "internalType": "address",
          "name": "toAddress",
          "type": "address"
        },
        {
          "internalType": "uint256",
          "name": "index",
          "type": "uint256"
        },
        {
          "internalType": "bool",
          "name": "creditsRemain",
          "type": "bool"
        }
      ],
      "stateMutability": "view",
      "type": "function"
    },
    {
      "inputs": [
        {
          "internalType": "bytes4",
          "name": "interfaceId",
          "type": "bytes4"
        }
      ],
      "name": "supportsInterface",
      "outputs": [
        {
          "internalType": "bool",
          "name": "",
          "type": "bool"
        }
      ],
      "stateMutability": "view",
      "type": "function"
    },
    {
      "inputs": [],
      "name": "symbol",
      "outputs": [
        {
          "internalType": "string",
          "name": "",
          "type": "string"
        }
      ],
      "stateMutability": "view",
      "type": "function"
    },
    {
      "inputs": [
        {
          "internalType": "uint256",
          "name": "tokenId",
          "type": "uint256"
        }
      ],
      "name": "tokenURI",
      "outputs": [
        {
          "internalType": "string",
          "name": "",
          "type": "string"
        }
      ],
      "stateMutability": "view",
      "type": "function"
    },
    {
      "inputs": [],
      "name": "totalSupply",
      "outputs": [
        {
          "internalType": "uint256",
          "name": "",
          "type": "uint256"
        }
      ],
      "stateMutability": "view",
      "type": "function"
    },
    {
      "inputs": [
        {
          "internalType": "address",
          "name": "from",
          "type": "address"
        },
        {
          "internalType": "address",
          "name": "to",
          "type": "address"
        },
        {
          "internalType": "uint256",
          "name": "tokenId",
          "type": "uint256"
        }
      ],
      "name": "transferFrom",
      "outputs": [],
      "stateMutability": "payable",
      "type": "function"
    },
    {
      "inputs": [
        {
          "internalType": "address",
          "name": "newOwner",
          "type": "address"
        }
      ],
      "name": "transferOwnership",
      "outputs": [],
      "stateMutability": "nonpayable",
      "type": "function"
    },
    {
      "inputs": [
        {
          "internalType": "uint16",
          "name": "",
          "type": "uint16"
        }
      ],
      "name": "trustedRemoteLookup",
      "outputs": [
        {
          "internalType": "bytes",
          "name": "",
          "type": "bytes"
        }
      ],
      "stateMutability": "view",
      "type": "function"
    },
    {
      "inputs": [],
      "name": "withdraw",
      "outputs": [],
      "stateMutability": "payable",
      "type": "function"
    }
  ],
  "bytecode": "0x60a0604052600a60145561138860155566354a6ba7a18000601655603260175560326019556363839790601b553480156200003957600080fd5b506040516200532f3803806200532f8339810160408190526200005c9162000417565b81818080733cc6cdda760b79bafa08df41ecfa224f810dceb660016040518060400160405280600e81526020016d437962657253796e64696361746560901b8152506040518060400160405280600381526020016243534560e81b8152508160029081620000cb9190620004fb565b506003620000da8282620004fb565b5050600160005550620000ed33620002c4565b6daaeb6d7670e522a718067333cd4e3b15620002325780156200018057604051633e9f1edf60e11b81523060048201526001600160a01b03831660248201526daaeb6d7670e522a718067333cd4e90637d3e3dbe906044015b600060405180830381600087803b1580156200016157600080fd5b505af115801562000176573d6000803e3d6000fd5b5050505062000232565b6001600160a01b03821615620001d15760405163a0af290360e01b81523060048201526001600160a01b03831660248201526daaeb6d7670e522a718067333cd4e9063a0af29039060440162000146565b604051632210724360e11b81523060048201526daaeb6d7670e522a718067333cd4e90634420e48690602401600060405180830381600087803b1580156200021857600080fd5b505af11580156200022d573d6000803e3d6000fd5b505050505b50506001600160a01b03166080525081620002aa5760405162461bcd60e51b815260206004820152602d60248201527f4f4e46543732313a206d696e476173546f5472616e73666572416e6453746f7260448201526c065206d757374206265203e203609c1b60648201526084015b60405180910390fd5b50601055620002bc336101f462000316565b5050620005c7565b600880546001600160a01b038381166001600160a01b0319831681179093556040519116919082907f8be0079c531659141344cd1fd0a4f28419497f9722a3daafe3b4186f6b6457e090600090a35050565b6127106001600160601b0382161115620003865760405162461bcd60e51b815260206004820152602a60248201527f455243323938313a20726f79616c7479206665652077696c6c206578636565646044820152692073616c65507269636560b01b6064820152608401620002a1565b6001600160a01b038216620003de5760405162461bcd60e51b815260206004820152601960248201527f455243323938313a20696e76616c6964207265636569766572000000000000006044820152606401620002a1565b604080518082019091526001600160a01b039092168083526001600160601b039091166020909201829052600160a01b90910217600955565b600080604083850312156200042b57600080fd5b825160208401519092506001600160a01b03811681146200044b57600080fd5b809150509250929050565b634e487b7160e01b600052604160045260246000fd5b600181811c908216806200048157607f821691505b602082108103620004a257634e487b7160e01b600052602260045260246000fd5b50919050565b601f821115620004f657600081815260208120601f850160051c81016020861015620004d15750805b601f850160051c820191505b81811015620004f257828155600101620004dd565b5050505b505050565b81516001600160401b0381111562000517576200051762000456565b6200052f816200052884546200046c565b84620004a8565b602080601f8311600181146200056757600084156200054e5750858301515b600019600386901b1c1916600185901b178555620004f2565b600085815260208120601f198616915b82811015620005985788860151825594840194600190910190840162000577565b5085821015620005b75787850151600019600388901b60f8161c191681555b5050505050600190811b01905550565b608051614d146200061b60003960008181610b6201528181610dc6015281816110e70152818161126c0152818161151f015281816120e0015281816126080152818161273b01526136ad0152614d146000f3fe6080604052600436106104255760003560e01c80637533d78811610229578063b4af48b61161012e578063d5abeb01116100b6578063f23536411161007a578063f235364114610d16578063f2fde38b14610d36578063f5ecbdbc14610d56578063fa25f9b614610d76578063ff010ecf14610da357600080fd5b8063d5abeb0114610c80578063df2a5b3b14610c96578063e083742714610cb6578063e985e9c514610cd6578063eb8d72b714610cf657600080fd5b8063c4461834116100fd578063c446183414610bf7578063c87b56dd14610c0d578063cbed8b9c14610c2d578063d12473a514610c4d578063d1deba1f14610c6d57600080fd5b8063b4af48b614610b84578063b88d4fde14610ba4578063baf3292d14610bb7578063c204642c14610bd757600080fd5b8063a1575c18116101b1578063ab3ffb9311610180578063ab3ffb9314610ae0578063ab84e56714610af3578063af3fb21c14610b13578063b1e1449914610b3b578063b353aaa714610b5057600080fd5b8063a1575c1814610a74578063a22cb46514610a8a578063a6c3d16514610aaa578063a8365e5e14610aca57600080fd5b80638ffa1f2a116101f85780638ffa1f2a146109df578063950c8a74146109ff57806395d89b4114610a1f5780639ea5d6b114610a345780639f38369a14610a5457600080fd5b80637533d788146109565780637b97008d146109765780638cfd8f5c146109895780638da5cb5b146109c157600080fd5b806323b872dd1161032f57806348288190116102b75780635b8c41e6116102865780635b8c41e6146108925780636352211e146108e157806366ad5c8a1461090157806370a0823114610921578063715018a61461094157600080fd5b806348288190146108265780634ac3f4ff1461083c57806351905636146108695780635971b4651461087c57600080fd5b80633d8b38f6116102fe5780633d8b38f6146107845780633f1f4fa4146107a457806341f43434146107d157806342842e0e146107f357806342d65a8d1461080657600080fd5b806323b872dd146106f55780632a205e3d146107085780632a55205a1461073d5780633ccfd60b1461077c57600080fd5b80630b4cad4c116103b257806318160ddd1161038157806318160ddd146105f257806318cae2691461060f5780631d9a2a551461063c57806322a3ecf91461065c578063239c70ae146106df57600080fd5b80630b4cad4c1461056e5780630df374831461058e57806310ddb137146105ae578063113f792e146105ce57600080fd5b806306fdde03116103f957806306fdde03146104c157806307e0db17146104e3578063081812fc14610503578063088a4ed01461053b578063095ea7b31461055b57600080fd5b80621d35671461042a578063012f3fab1461044c57806301ffc9a71461046c57806304634d8d146104a1575b600080fd5b34801561043657600080fd5b5061044a610445366004613ab1565b610dc3565b005b34801561045857600080fd5b5061044a610467366004613b44565b610ff4565b34801561047857600080fd5b5061048c610487366004613b73565b611001565b60405190151581526020015b60405180910390f35b3480156104ad57600080fd5b5061044a6104bc366004613bb0565b61101e565b3480156104cd57600080fd5b506104d6611034565b6040516104989190613c45565b3480156104ef57600080fd5b5061044a6104fe366004613c58565b6110c6565b34801561050f57600080fd5b5061052361051e366004613b44565b61114f565b6040516001600160a01b039091168152602001610498565b34801561054757600080fd5b5061044a610556366004613b44565b611193565b61044a610569366004613c73565b6111a0565b34801561057a57600080fd5b5061044a610589366004613b44565b6111b9565b34801561059a57600080fd5b5061044a6105a9366004613c9f565b61122c565b3480156105ba57600080fd5b5061044a6105c9366004613c58565b61124b565b3480156105da57600080fd5b506105e460175481565b604051908152602001610498565b3480156105fe57600080fd5b5060015460005403600019016105e4565b34801561061b57600080fd5b506105e461062a366004613cbb565b60186020526000908152604090205481565b34801561064857600080fd5b5061044a610657366004613b44565b6112a3565b34801561066857600080fd5b506106b0610677366004613b44565b60136020526000908152604090208054600182015460029092015461ffff821692620100009092046001600160a01b0316919060ff1684565b6040805161ffff90951685526001600160a01b0390931660208501529183015215156060820152608001610498565b3480156106eb57600080fd5b506105e460145481565b61044a610703366004613cd8565b6112b0565b34801561071457600080fd5b50610728610723366004613df2565b6112db565b60408051928352602083019190915201610498565b34801561074957600080fd5b5061075d610758366004613e84565b611301565b604080516001600160a01b039093168352602083019190915201610498565b61044a6113af565b34801561079057600080fd5b5061048c61079f366004613ea6565b61140f565b3480156107b057600080fd5b506105e46107bf366004613c58565b600d6020526000908152604090205481565b3480156107dd57600080fd5b506105236daaeb6d7670e522a718067333cd4e81565b61044a610801366004613cd8565b6114db565b34801561081257600080fd5b5061044a610821366004613ea6565b611500565b34801561083257600080fd5b506105e460105481565b34801561084857600080fd5b506105e4610857366004613c58565b60116020526000908152604090205481565b61044a610877366004613ef8565b611586565b34801561088857600080fd5b506105e460195481565b34801561089e57600080fd5b506105e46108ad366004613fb1565b600f602090815260009384526040808520845180860184018051928152908401958401959095209452929052825290205481565b3480156108ed57600080fd5b506105236108fc366004613b44565b61159d565b34801561090d57600080fd5b5061044a61091c366004613ab1565b6115a8565b34801561092d57600080fd5b506105e461093c366004613cbb565b611684565b34801561094d57600080fd5b5061044a6116d2565b34801561096257600080fd5b506104d6610971366004613c58565b6116e6565b61044a610984366004613b44565b611780565b34801561099557600080fd5b506105e46109a436600461400e565b600c60209081526000928352604080842090915290825290205481565b3480156109cd57600080fd5b506008546001600160a01b0316610523565b3480156109eb57600080fd5b5061044a6109fa366004614041565b6119e7565b348015610a0b57600080fd5b50600e54610523906001600160a01b031681565b348015610a2b57600080fd5b506104d6611c31565b348015610a4057600080fd5b5061044a610a4f366004613c9f565b611c40565b348015610a6057600080fd5b506104d6610a6f366004613c58565b611cc3565b348015610a8057600080fd5b506105e460165481565b348015610a9657600080fd5b5061044a610aa5366004614075565b611dd9565b348015610ab657600080fd5b5061044a610ac5366004613ea6565b611ded565b348015610ad657600080fd5b506105e4601b5481565b61044a610aee36600461412c565b611e76565b348015610aff57600080fd5b5061044a610b0e3660046141e1565b611e85565b348015610b1f57600080fd5b50610b28600181565b60405161ffff9091168152602001610498565b348015610b4757600080fd5b506104d6611e99565b348015610b5c57600080fd5b506105237f000000000000000000000000000000000000000000000000000000000000000081565b348015610b9057600080fd5b5061044a610b9f366004614229565b611ea6565b61044a610bb23660046142a3565b611f1c565b348015610bc357600080fd5b5061044a610bd2366004613cbb565b611f42565b348015610be357600080fd5b5061044a610bf2366004614229565b611f9e565b348015610c0357600080fd5b506105e461271081565b348015610c1957600080fd5b506104d6610c28366004613b44565b611fd8565b348015610c3957600080fd5b5061044a610c4836600461430e565b6120c1565b348015610c5957600080fd5b5061044a610c68366004613c9f565b612156565b61044a610c7b366004613ab1565b6121da565b348015610c8c57600080fd5b506105e460155481565b348015610ca257600080fd5b5061044a610cb136600461437c565b6123f0565b348015610cc257600080fd5b5061044a610cd13660046143b8565b6124a2565b348015610ce257600080fd5b5061048c610cf1366004614451565b612541565b348015610d0257600080fd5b5061044a610d11366004613ea6565b61256f565b348015610d2257600080fd5b50610728610d3136600461447f565b6125c9565b348015610d4257600080fd5b5061044a610d51366004613cbb565b612694565b348015610d6257600080fd5b506104d6610d713660046144fc565b61270a565b348015610d8257600080fd5b506105e4610d91366004613c58565b60126020526000908152604090205481565b348015610daf57600080fd5b5061044a610dbe366004613b44565b6127bd565b337f00000000000000000000000000000000000000000000000000000000000000006001600160a01b031614610e405760405162461bcd60e51b815260206004820152601e60248201527f4c7a4170703a20696e76616c696420656e64706f696e742063616c6c6572000060448201526064015b60405180910390fd5b61ffff86166000908152600b602052604081208054610e5e90614549565b80601f0160208091040260200160405190810160405280929190818152602001828054610e8a90614549565b8015610ed75780601f10610eac57610100808354040283529160200191610ed7565b820191906000526020600020905b815481529060010190602001808311610eba57829003601f168201915b50505050509050805186869050148015610ef2575060008151115b8015610f1a575080516020820120604051610f109088908890614583565b6040518091039020145b610f755760405162461bcd60e51b815260206004820152602660248201527f4c7a4170703a20696e76616c696420736f757263652073656e64696e6720636f6044820152651b9d1c9858dd60d21b6064820152608401610e37565b610feb8787878080601f01602080910402602001604051908101604052809392919081815260200183838082843760009201919091525050604080516020601f8a018190048102820181019092528881528a9350915088908890819084018382808284376000920191909152506127ca92505050565b50505050505050565b610ffc612843565b601955565b60006322bac5d960e01b6001600160e01b03198316145b92915050565b611026612843565b611030828261289d565b5050565b60606002805461104390614549565b80601f016020809104026020016040519081016040528092919081815260200182805461106f90614549565b80156110bc5780601f10611091576101008083540402835291602001916110bc565b820191906000526020600020905b81548152906001019060200180831161109f57829003601f168201915b5050505050905090565b6110ce612843565b6040516307e0db1760e01b815261ffff821660048201527f00000000000000000000000000000000000000000000000000000000000000006001600160a01b0316906307e0db17906024015b600060405180830381600087803b15801561113457600080fd5b505af1158015611148573d6000803e3d6000fd5b5050505050565b600061115a8261299a565b611177576040516333d1c03960e21b815260040160405180910390fd5b506000908152600660205260409020546001600160a01b031690565b61119b612843565b601455565b816111aa816129cf565b6111b48383612a88565b505050565b6111c1612843565b600081116112275760405162461bcd60e51b815260206004820152602d60248201527f4f4e46543732313a206d696e476173546f5472616e73666572416e6453746f7260448201526c065206d757374206265203e203609c1b6064820152608401610e37565b601055565b611234612843565b61ffff9091166000908152600d6020526040902055565b611253612843565b6040516310ddb13760e01b815261ffff821660048201527f00000000000000000000000000000000000000000000000000000000000000006001600160a01b0316906310ddb1379060240161111a565b6112ab612843565b601b55565b826001600160a01b03811633146112ca576112ca336129cf565b6112d5848484612b28565b50505050565b6000806112f387876112ec88612cbd565b87876125c9565b915091509550959350505050565b6000828152600a602090815260408083208151808301909252546001600160a01b038116808352600160a01b9091046001600160601b03169282019290925282916113765750604080518082019091526009546001600160a01b0381168252600160a01b90046001600160601b031660208201525b602081015160009061271090611395906001600160601b0316876145a9565b61139f91906145c0565b91519350909150505b9250929050565b6113b7612843565b604051600090339047908381818185875af1925050503d80600081146113f9576040519150601f19603f3d011682016040523d82523d6000602084013e6113fe565b606091505b505090508061140c57600080fd5b50565b61ffff83166000908152600b60205260408120805482919061143090614549565b80601f016020809104026020016040519081016040528092919081815260200182805461145c90614549565b80156114a95780601f1061147e576101008083540402835291602001916114a9565b820191906000526020600020905b81548152906001019060200180831161148c57829003601f168201915b5050505050905083836040516114c0929190614583565b60405180910390208180519060200120149150509392505050565b826001600160a01b03811633146114f5576114f5336129cf565b6112d5848484612d08565b611508612843565b6040516342d65a8d60e01b81526001600160a01b037f000000000000000000000000000000000000000000000000000000000000000016906342d65a8d906115589086908690869060040161460b565b600060405180830381600087803b15801561157257600080fd5b505af1158015610feb573d6000803e3d6000fd5b610feb87878761159588612cbd565b878787612d23565b600061101882612efd565b3330146116065760405162461bcd60e51b815260206004820152602660248201527f4e6f6e626c6f636b696e674c7a4170703a2063616c6c6572206d7573742062656044820152650204c7a4170760d41b6064820152608401610e37565b61167c8686868080601f01602080910402602001604051908101604052809392919081815260200183838082843760009201919091525050604080516020601f890181900481028201810190925287815289935091508790879081908401838280828437600092019190915250612f6c92505050565b505050505050565b60006001600160a01b0382166116ad576040516323d3ad8160e21b815260040160405180910390fd5b506001600160a01b03166000908152600560205260409020546001600160401b031690565b6116da612843565b6116e460006130c3565b565b600b60205260009081526040902080546116ff90614549565b80601f016020809104026020016040519081016040528092919081815260200182805461172b90614549565b80156117785780601f1061174d57610100808354040283529160200191611778565b820191906000526020600020905b81548152906001019060200180831161175b57829003601f168201915b505050505081565b601b5442116117ca5760405162461bcd60e51b8152602060048201526016602482015275151a194818dbdb9d1c9858dd081a5cc81c185d5cd95960521b6044820152606401610e37565b60006117df6001546000546000199190030190565b9050600082116118315760405162461bcd60e51b815260206004820152601f60248201527f596f75206861766520746f206d696e74206174206c656173742031204e4654006044820152606401610e37565b60145482111561188f5760405162461bcd60e51b8152602060048201526024808201527f4d6178206d696e7420616d6f756e74207065722073657373696f6e20657863656044820152631959195960e21b6064820152608401610e37565b336000908152601860205260409020546017546118ac8483614629565b11156118fa5760405162461bcd60e51b815260206004820152601c60248201527f6d6178204e4654207065722061646472657373206578636565646564000000006044820152606401610e37565b6015546119078484614629565b111561194e5760405162461bcd60e51b815260206004820152601660248201527513585e08139195081b1a5b5a5d08195e18d95959195960521b6044820152606401610e37565b8260165461195c91906145a9565b3410156119a05760405162461bcd60e51b8152602060048201526012602482015271496e73756666696369656e742066756e647360701b6044820152606401610e37565b60015b8381116112d5573360009081526018602052604081208054916119c58361463c565b91905055506119d5336001613115565b806119df8161463c565b9150506119a3565b80516020808301919091206000818152601390925260409091206002015460ff16611a545760405162461bcd60e51b815260206004820152601a60248201527f4f4e46543732313a206e6f20637265646974732073746f7265640000000000006044820152606401610e37565b600082806020019051810190611a6a919061469a565b60008481526013602052604081208054600190910154929450909250611aa69161ffff8216916201000090046001600160a01b0316908561312f565b6000848152601360205260409020600101549091508111611b245760405162461bcd60e51b815260206004820152603260248201527f4f4e46543732313a206e6f7420656e6f7567682067617320746f2070726f636560448201527139b99031b932b234ba103a3930b739b332b960711b6064820152608401610e37565b81518103611b9b5760008381526013602052604080822080546001600160b01b031916815560018101929092556002909101805460ff19169055517fd7be02b8dd0d27bd0517a9cb4d7469ce27df4313821ae5ec1ff69acc594ba23390611b8e9085815260200190565b60405180910390a16112d5565b60408051608081018252600085815260136020818152848320805461ffff8082168752620100008083046001600160a01b03908116868a019081529989019a8b52600160608a018181529d9098529590945295519651969095166001600160b01b031990951694909417949091160292909217815591519082015591516002909201805460ff1916921515929092179091555050565b60606003805461104390614549565b611c48612843565b60008111611cac5760405162461bcd60e51b815260206004820152602b60248201527f4f4e46543732313a20647374436861696e4964546f42617463684c696d69742060448201526a06d757374206265203e20360ac1b6064820152608401610e37565b61ffff909116600090815260116020526040902055565b61ffff81166000908152600b6020526040812080546060929190611ce690614549565b80601f0160208091040260200160405190810160405280929190818152602001828054611d1290614549565b8015611d5f5780601f10611d3457610100808354040283529160200191611d5f565b820191906000526020600020905b815481529060010190602001808311611d4257829003601f168201915b505050505090508051600003611db75760405162461bcd60e51b815260206004820152601d60248201527f4c7a4170703a206e6f20747275737465642070617468207265636f72640000006044820152606401610e37565b611dd2600060148351611dca9190614754565b83919061316e565b9392505050565b81611de3816129cf565b6111b4838361327b565b611df5612843565b818130604051602001611e0a93929190614767565b60408051601f1981840301815291815261ffff85166000908152600b6020522090611e3590826147d3565b507f8c0400cfe2d1199b1a725c78960bcc2a344d869b80590d0f2bd005db15a572ce838383604051611e699392919061460b565b60405180910390a1505050565b610feb87878787878787612d23565b611e8d612843565b601a61103082826147d3565b601a80546116ff90614549565b611eae612843565b611eb881836145a9565b60196000828254611ec99190614754565b90915550600090505b828110156112d557611f0a848483818110611eef57611eef614892565b9050602002016020810190611f049190613cbb565b83613115565b80611f148161463c565b915050611ed2565b836001600160a01b0381163314611f3657611f36336129cf565b611148858585856132e7565b611f4a612843565b600e80546001600160a01b0319166001600160a01b0383169081179091556040519081527f5db758e995a17ec1ad84bdef7e8c3293a0bd6179bcce400dff5d4c3d87db726b9060200160405180910390a150565b611fa6612843565b60005b828110156112d557611fc6848483818110611eef57611eef614892565b80611fd08161463c565b915050611fa9565b6060611fe38261299a565b6120475760405162461bcd60e51b815260206004820152602f60248201527f4552433732314d657461646174613a2055524920717565727920666f72206e6f60448201526e3732bc34b9ba32b73a103a37b5b2b760891b6064820152608401610e37565b600061205161332b565b905060008151116120715760405180602001604052806000815250611dd2565b8061207b8461333a565b60405180604001604052806005815260200164173539b7b760d91b8152506040516020016120ab939291906148a8565b6040516020818303038152906040529392505050565b6120c9612843565b6040516332fb62e760e21b81526001600160a01b037f0000000000000000000000000000000000000000000000000000000000000000169063cbed8b9c9061211d90889088908890889088906004016148eb565b600060405180830381600087803b15801561213757600080fd5b505af115801561214b573d6000803e3d6000fd5b505050505050505050565b61215e612843565b600081116121c35760405162461bcd60e51b815260206004820152602c60248201527f4f4e46543732313a20647374436861696e4964546f5472616e7366657247617360448201526b0206d757374206265203e20360a41b6064820152608401610e37565b61ffff909116600090815260126020526040902055565b61ffff86166000908152600f602052604080822090516121fd9088908890614583565b90815260408051602092819003830190206001600160401b0387166000908152925290205490508061227d5760405162461bcd60e51b815260206004820152602360248201527f4e6f6e626c6f636b696e674c7a4170703a206e6f2073746f726564206d65737360448201526261676560e81b6064820152608401610e37565b80838360405161228e929190614583565b6040518091039020146122ed5760405162461bcd60e51b815260206004820152602160248201527f4e6f6e626c6f636b696e674c7a4170703a20696e76616c6964207061796c6f616044820152601960fa1b6064820152608401610e37565b61ffff87166000908152600f602052604080822090516123109089908990614583565b90815260408051602092819003830181206001600160401b038916600090815290845282902093909355601f880182900482028301820190528682526123a8918991899089908190840183828082843760009201919091525050604080516020601f8a018190048102820181019092528881528a935091508890889081908401838280828437600092019190915250612f6c92505050565b7fc264d91f3adc5588250e1551f547752ca0cfa8f6b530d243b9f9f4cab10ea8e587878787856040516123df959493929190614919565b60405180910390a150505050505050565b6123f8612843565b600081116124405760405162461bcd60e51b81526020600482015260156024820152744c7a4170703a20696e76616c6964206d696e47617360581b6044820152606401610e37565b61ffff8381166000818152600c602090815260408083209487168084529482529182902085905581519283528201929092529081018290527f9d5c7c0b934da8fefa9c7760c98383778a12dfbfc0c3b3106518f43fb9508ac090606001611e69565b6124aa612843565b805160005b818110156111b457601860008483815181106124cd576124cd614892565b60200260200101516001600160a01b03166001600160a01b0316815260200190815260200160002060008154809291906125069061463c565b919050555061252f83828151811061252057612520614892565b60200260200101516001613115565b806125398161463c565b9150506124af565b6001600160a01b03918216600090815260076020908152604080832093909416825291909152205460ff1690565b612577612843565b61ffff83166000908152600b60205260409020612595828483614954565b507ffa41487ad5d6728f0b19276fa1eddc16558578f5109fc39d2dc33c3230470dab838383604051611e699392919061460b565b600080600086866040516020016125e1929190614a4e565b60408051601f198184030181529082905263040a7bb160e41b825291506001600160a01b037f000000000000000000000000000000000000000000000000000000000000000016906340a7bb1090612645908b90309086908b908b90600401614a7c565b6040805180830381865afa158015612661573d6000803e3d6000fd5b505050506040513d601f19601f820116820180604052508101906126859190614ad0565b92509250509550959350505050565b61269c612843565b6001600160a01b0381166127015760405162461bcd60e51b815260206004820152602660248201527f4f776e61626c653a206e6577206f776e657220697320746865207a65726f206160448201526564647265737360d01b6064820152608401610e37565b61140c816130c3565b604051633d7b2f6f60e21b815261ffff808616600483015284166024820152306044820152606481018290526060907f00000000000000000000000000000000000000000000000000000000000000006001600160a01b03169063f5ecbdbc90608401600060405180830381865afa15801561278a573d6000803e3d6000fd5b505050506040513d6000823e601f3d908101601f191682016040526127b29190810190614af4565b90505b949350505050565b6127c5612843565b601655565b60008061282d5a60966366ad5c8a60e01b898989896040516024016127f29493929190614b28565b60408051601f198184030181529190526020810180516001600160e01b03166001600160e01b0319909316929092179091523092919061337e565b915091508161167c5761167c8686868685613408565b6008546001600160a01b031633146116e45760405162461bcd60e51b815260206004820181905260248201527f4f776e61626c653a2063616c6c6572206973206e6f7420746865206f776e65726044820152606401610e37565b6127106001600160601b038216111561290b5760405162461bcd60e51b815260206004820152602a60248201527f455243323938313a20726f79616c7479206665652077696c6c206578636565646044820152692073616c65507269636560b01b6064820152608401610e37565b6001600160a01b0382166129615760405162461bcd60e51b815260206004820152601960248201527f455243323938313a20696e76616c6964207265636569766572000000000000006044820152606401610e37565b604080518082019091526001600160a01b039092168083526001600160601b039091166020909201829052600160a01b90910217600955565b6000816001111580156129ae575060005482105b8015611018575050600090815260046020526040902054600160e01b161590565b6daaeb6d7670e522a718067333cd4e3b1561140c57604051633185c44d60e21b81523060048201526001600160a01b03821660248201526daaeb6d7670e522a718067333cd4e9063c617113490604401602060405180830381865afa158015612a3c573d6000803e3d6000fd5b505050506040513d601f19601f82011682018060405250810190612a609190614b66565b61140c57604051633b79c77360e21b81526001600160a01b0382166004820152602401610e37565b6000612a938261159d565b9050336001600160a01b03821614612acc57612aaf8133612541565b612acc576040516367d9dca160e11b815260040160405180910390fd5b60008281526006602052604080822080546001600160a01b0319166001600160a01b0387811691821790925591518593918516917f8c5be1e5ebec7d5bd14f71427d1e84f3dd0314c0f7b2291e5b200ac8c7c3b92591a4505050565b6000612b3382612efd565b9050836001600160a01b0316816001600160a01b031614612b665760405162a1148160e81b815260040160405180910390fd5b60008281526006602052604090208054338082146001600160a01b03881690911417612bb357612b968633612541565b612bb357604051632ce44b5f60e11b815260040160405180910390fd5b6001600160a01b038516612bda57604051633a954ecd60e21b815260040160405180910390fd5b8015612be557600082555b6001600160a01b038681166000908152600560205260408082208054600019019055918716808252919020805460010190554260a01b17600160e11b17600085815260046020526040812091909155600160e11b84169003612c7757600184016000818152600460205260408120549003612c75576000548114612c755760008181526004602052604090208490555b505b83856001600160a01b0316876001600160a01b03167fddf252ad1be2c89b69c2b068fc378daa952ba7f163c4a11628f55a4df523b3ef60405160405180910390a461167c565b60408051600180825281830190925260609160009190602080830190803683370190505090508281600081518110612cf757612cf7614892565b602090810291909101015292915050565b6111b483838360405180602001604052806000815250611f1c565b6000845111612d745760405162461bcd60e51b815260206004820152601a60248201527f4c7a4170703a20746f6b656e4964735b5d20697320656d7074790000000000006044820152606401610e37565b835160011480612d98575061ffff8616600090815260116020526040902054845111155b612df85760405162461bcd60e51b815260206004820152602b60248201527f4f4e46543732313a2062617463682073697a652065786365656473206473742060448201526a18985d18da081b1a5b5a5d60aa1b6064820152608401610e37565b60005b8451811015612e2e57612e1c88888888858151811061114857611148614892565b80612e268161463c565b915050612dfb565b5060008585604051602001612e44929190614a4e565b6040516020818303038152906040529050612e89876001848851601260008d61ffff1661ffff16815260200190815260200160002054612e8491906145a9565b6134a5565b612e97878286868634613584565b85604051612ea59190614b83565b6040518091039020886001600160a01b03168861ffff167fe1b87c47fdeb4f9cbadbca9df3af7aba453bb6e501075d0440d88125b711522a88604051612eeb9190614b9f565b60405180910390a45050505050505050565b60008180600111612f5357600054811015612f535760008181526004602052604081205490600160e01b82169003612f51575b80600003611dd2575060001901600081815260046020526040902054612f30565b505b604051636f96cda160e11b815260040160405180910390fd5b60008082806020019051810190612f83919061469a565b601482015191935091506000612f9b8883838661312f565b9050825181101561306f5784516020808701919091206040805160808101825261ffff808d1682526001600160a01b0380881683870190815283850188815260016060860181815260008981526013909a529887902095518654935190941662010000026001600160b01b03199093169390941692909217178355519082015592516002909301805493151560ff199094169390931790925590517f10e0b70d256bccc84b7027506978bd8b68984a870788b93b479def144c839ad7906130659083908990614bb2565b60405180910390a1505b816001600160a01b0316876040516130879190614b83565b60405180910390208961ffff167f5b821db8a46f8ecbe1941ba2f51cfeea9643268b56631f70d45e2a745d99026586604051612eeb9190614b9f565b600880546001600160a01b038381166001600160a01b0319831681179093556040519116919082907f8be0079c531659141344cd1fd0a4f28419497f9722a3daafe3b4186f6b6457e090600090a35050565b611030828260405180602001604052806000815250613729565b6000825b82518110156127b2576010545a106127b25761315c86868584815181106112d5576112d5614892565b806131668161463c565b915050613133565b60608161317c81601f614629565b10156131bb5760405162461bcd60e51b815260206004820152600e60248201526d736c6963655f6f766572666c6f7760901b6044820152606401610e37565b6131c58284614629565b845110156132095760405162461bcd60e51b8152602060048201526011602482015270736c6963655f6f75744f66426f756e647360781b6044820152606401610e37565b6060821580156132285760405191506000825260208201604052613272565b6040519150601f8416801560200281840101858101878315602002848b0101015b81831015613261578051835260209283019201613249565b5050858452601f01601f1916604052505b50949350505050565b3360008181526007602090815260408083206001600160a01b03871680855290835292819020805460ff191686151590811790915590519081529192917f17307eab39ab6107e8899845ad3d59bd9653f200f220920489ca2b5937696c31910160405180910390a35050565b6132f28484846112b0565b6001600160a01b0383163b156112d55761330e8484848461378f565b6112d5576040516368d2bf6b60e11b815260040160405180910390fd5b6060601a805461104390614549565b606060a06040510180604052602081039150506000815280825b600183039250600a81066030018353600a9004806133545750819003601f19909101908152919050565b6000606060008060008661ffff166001600160401b038111156133a3576133a3613d19565b6040519080825280601f01601f1916602001820160405280156133cd576020820181803683370190505b50905060008087516020890160008d8df191503d9250868311156133ef578692505b828152826000602083013e909890975095505050505050565b8180519060200120600f60008761ffff1661ffff168152602001908152602001600020856040516134399190614b83565b9081526040805191829003602090810183206001600160401b0388166000908152915220919091557fe183f33de2837795525b4792ca4cd60535bd77c53b7e7030060bfcf5734d6b0c906134969087908790879087908790614bcb565b60405180910390a15050505050565b60006134b083613877565b61ffff8087166000908152600c60209081526040808320938916835292905290812054919250906134e2908490614629565b9050600081116135345760405162461bcd60e51b815260206004820152601a60248201527f4c7a4170703a206d696e4761734c696d6974206e6f74207365740000000000006044820152606401610e37565b8082101561167c5760405162461bcd60e51b815260206004820152601b60248201527f4c7a4170703a20676173206c696d697420697320746f6f206c6f7700000000006044820152606401610e37565b61ffff86166000908152600b6020526040812080546135a290614549565b80601f01602080910402602001604051908101604052809291908181526020018280546135ce90614549565b801561361b5780601f106135f05761010080835404028352916020019161361b565b820191906000526020600020905b8154815290600101906020018083116135fe57829003601f168201915b50505050509050805160000361368c5760405162461bcd60e51b815260206004820152603060248201527f4c7a4170703a2064657374696e6174696f6e20636861696e206973206e6f742060448201526f61207472757374656420736f7572636560801b6064820152608401610e37565b6136978787516138d3565b60405162c5803160e81b81526001600160a01b037f0000000000000000000000000000000000000000000000000000000000000000169063c58031009084906136ee908b9086908c908c908c908c90600401614c1d565b6000604051808303818588803b15801561370757600080fd5b505af115801561371b573d6000803e3d6000fd5b505050505050505050505050565b6137338383613944565b6001600160a01b0383163b156111b4576000548281035b61375d600086838060010194508661378f565b61377a576040516368d2bf6b60e11b815260040160405180910390fd5b81811061374a57816000541461114857600080fd5b604051630a85bd0160e11b81526000906001600160a01b0385169063150b7a02906137c4903390899088908890600401614c84565b6020604051808303816000875af19250505080156137ff575060408051601f3d908101601f191682019092526137fc91810190614cc1565b60015b61385d573d80801561382d576040519150601f19603f3d011682016040523d82523d6000602084013e613832565b606091505b508051600003613855576040516368d2bf6b60e11b815260040160405180910390fd5b805181602001fd5b6001600160e01b031916630a85bd0160e11b1490506127b5565b60006022825110156138cb5760405162461bcd60e51b815260206004820152601c60248201527f4c7a4170703a20696e76616c69642061646170746572506172616d73000000006044820152606401610e37565b506022015190565b61ffff82166000908152600d6020526040812054908190036138f457506127105b808211156111b45760405162461bcd60e51b815260206004820181905260248201527f4c7a4170703a207061796c6f61642073697a6520697320746f6f206c617267656044820152606401610e37565b60008054908290036139695760405163b562e8dd60e01b815260040160405180910390fd5b6001600160a01b03831660008181526005602090815260408083208054680100000000000000018802019055848352600490915281206001851460e11b4260a01b178317905582840190839083907fddf252ad1be2c89b69c2b068fc378daa952ba7f163c4a11628f55a4df523b3ef8180a4600183015b818114613a1857808360007fddf252ad1be2c89b69c2b068fc378daa952ba7f163c4a11628f55a4df523b3ef600080a46001016139e0565b5081600003613a3957604051622e076360e81b815260040160405180910390fd5b60005550505050565b803561ffff81168114613a5457600080fd5b919050565b60008083601f840112613a6b57600080fd5b5081356001600160401b03811115613a8257600080fd5b6020830191508360208285010111156113a857600080fd5b80356001600160401b0381168114613a5457600080fd5b60008060008060008060808789031215613aca57600080fd5b613ad387613a42565b955060208701356001600160401b0380821115613aef57600080fd5b613afb8a838b01613a59565b9097509550859150613b0f60408a01613a9a565b94506060890135915080821115613b2557600080fd5b50613b3289828a01613a59565b979a9699509497509295939492505050565b600060208284031215613b5657600080fd5b5035919050565b6001600160e01b03198116811461140c57600080fd5b600060208284031215613b8557600080fd5b8135611dd281613b5d565b6001600160a01b038116811461140c57600080fd5b8035613a5481613b90565b60008060408385031215613bc357600080fd5b8235613bce81613b90565b915060208301356001600160601b0381168114613bea57600080fd5b809150509250929050565b60005b83811015613c10578181015183820152602001613bf8565b50506000910152565b60008151808452613c31816020860160208601613bf5565b601f01601f19169290920160200192915050565b602081526000611dd26020830184613c19565b600060208284031215613c6a57600080fd5b611dd282613a42565b60008060408385031215613c8657600080fd5b8235613c9181613b90565b946020939093013593505050565b60008060408385031215613cb257600080fd5b613c9183613a42565b600060208284031215613ccd57600080fd5b8135611dd281613b90565b600080600060608486031215613ced57600080fd5b8335613cf881613b90565b92506020840135613d0881613b90565b929592945050506040919091013590565b634e487b7160e01b600052604160045260246000fd5b604051601f8201601f191681016001600160401b0381118282101715613d5757613d57613d19565b604052919050565b60006001600160401b03821115613d7857613d78613d19565b50601f01601f191660200190565b6000613d99613d9484613d5f565b613d2f565b9050828152838383011115613dad57600080fd5b828260208301376000602084830101529392505050565b600082601f830112613dd557600080fd5b611dd283833560208501613d86565b801515811461140c57600080fd5b600080600080600060a08688031215613e0a57600080fd5b613e1386613a42565b945060208601356001600160401b0380821115613e2f57600080fd5b613e3b89838a01613dc4565b95506040880135945060608801359150613e5482613de4565b90925060808701359080821115613e6a57600080fd5b50613e7788828901613dc4565b9150509295509295909350565b60008060408385031215613e9757600080fd5b50508035926020909101359150565b600080600060408486031215613ebb57600080fd5b613ec484613a42565b925060208401356001600160401b03811115613edf57600080fd5b613eeb86828701613a59565b9497909650939450505050565b600080600080600080600060e0888a031215613f1357600080fd5b8735613f1e81613b90565b9650613f2c60208901613a42565b955060408801356001600160401b0380821115613f4857600080fd5b613f548b838c01613dc4565b965060608a0135955060808a01359150613f6d82613b90565b90935060a089013590613f7f82613b90565b90925060c08901359080821115613f9557600080fd5b50613fa28a828b01613dc4565b91505092959891949750929550565b600080600060608486031215613fc657600080fd5b613fcf84613a42565b925060208401356001600160401b03811115613fea57600080fd5b613ff686828701613dc4565b92505061400560408501613a9a565b90509250925092565b6000806040838503121561402157600080fd5b61402a83613a42565b915061403860208401613a42565b90509250929050565b60006020828403121561405357600080fd5b81356001600160401b0381111561406957600080fd5b6127b584828501613dc4565b6000806040838503121561408857600080fd5b823561409381613b90565b91506020830135613bea81613de4565b60006001600160401b038211156140bc576140bc613d19565b5060051b60200190565b600082601f8301126140d757600080fd5b813560206140e7613d94836140a3565b82815260059290921b8401810191818101908684111561410657600080fd5b8286015b84811015614121578035835291830191830161410a565b509695505050505050565b600080600080600080600060e0888a03121561414757600080fd5b873561415281613b90565b965061416060208901613a42565b955060408801356001600160401b038082111561417c57600080fd5b6141888b838c01613dc4565b965060608a013591508082111561419e57600080fd5b6141aa8b838c016140c6565b955060808a013591506141bc82613b90565b8194506141cb60a08b01613ba5565b935060c08a0135915080821115613f9557600080fd5b6000602082840312156141f357600080fd5b81356001600160401b0381111561420957600080fd5b8201601f8101841361421a57600080fd5b6127b584823560208401613d86565b60008060006040848603121561423e57600080fd5b83356001600160401b038082111561425557600080fd5b818601915086601f83011261426957600080fd5b81358181111561427857600080fd5b8760208260051b850101111561428d57600080fd5b6020928301989097509590910135949350505050565b600080600080608085870312156142b957600080fd5b84356142c481613b90565b935060208501356142d481613b90565b92506040850135915060608501356001600160401b038111156142f657600080fd5b61430287828801613dc4565b91505092959194509250565b60008060008060006080868803121561432657600080fd5b61432f86613a42565b945061433d60208701613a42565b93506040860135925060608601356001600160401b0381111561435f57600080fd5b61436b88828901613a59565b969995985093965092949392505050565b60008060006060848603121561439157600080fd5b61439a84613a42565b92506143a860208501613a42565b9150604084013590509250925092565b600060208083850312156143cb57600080fd5b82356001600160401b038111156143e157600080fd5b8301601f810185136143f257600080fd5b8035614400613d94826140a3565b81815260059190911b8201830190838101908783111561441f57600080fd5b928401925b8284101561444657833561443781613b90565b82529284019290840190614424565b979650505050505050565b6000806040838503121561446457600080fd5b823561446f81613b90565b91506020830135613bea81613b90565b600080600080600060a0868803121561449757600080fd5b6144a086613a42565b945060208601356001600160401b03808211156144bc57600080fd5b6144c889838a01613dc4565b955060408801359150808211156144de57600080fd5b6144ea89838a016140c6565b945060608801359150613e5482613de4565b6000806000806080858703121561451257600080fd5b61451b85613a42565b935061452960208601613a42565b9250604085013561453981613b90565b9396929550929360600135925050565b600181811c9082168061455d57607f821691505b60208210810361457d57634e487b7160e01b600052602260045260246000fd5b50919050565b8183823760009101908152919050565b634e487b7160e01b600052601160045260246000fd5b808202811582820484141761101857611018614593565b6000826145dd57634e487b7160e01b600052601260045260246000fd5b500490565b81835281816020850137506000828201602090810191909152601f909101601f19169091010190565b61ffff841681526040602082015260006127b26040830184866145e2565b8082018082111561101857611018614593565b60006001820161464e5761464e614593565b5060010190565b600082601f83011261466657600080fd5b8151614674613d9482613d5f565b81815284602083860101111561468957600080fd5b6127b5826020830160208701613bf5565b600080604083850312156146ad57600080fd5b82516001600160401b03808211156146c457600080fd5b6146d086838701614655565b93506020915081850151818111156146e757600080fd5b85019050601f810186136146fa57600080fd5b8051614708613d94826140a3565b81815260059190911b8201830190838101908883111561472757600080fd5b928401925b828410156147455783518252928401929084019061472c565b80955050505050509250929050565b8181038181111561101857611018614593565b8284823760609190911b6bffffffffffffffffffffffff19169101908152601401919050565b601f8211156111b457600081815260208120601f850160051c810160208610156147b45750805b601f850160051c820191505b8181101561167c578281556001016147c0565b81516001600160401b038111156147ec576147ec613d19565b614800816147fa8454614549565b8461478d565b602080601f831160018114614835576000841561481d5750858301515b600019600386901b1c1916600185901b17855561167c565b600085815260208120601f198616915b8281101561486457888601518255948401946001909101908401614845565b50858210156148825787850151600019600388901b60f8161c191681555b5050505050600190811b01905550565b634e487b7160e01b600052603260045260246000fd5b600084516148ba818460208901613bf5565b8451908301906148ce818360208901613bf5565b84519101906148e1818360208801613bf5565b0195945050505050565b600061ffff8088168352808716602084015250846040830152608060608301526144466080830184866145e2565b61ffff861681526080602082015260006149376080830186886145e2565b6001600160401b0394909416604083015250606001529392505050565b6001600160401b0383111561496b5761496b613d19565b61497f836149798354614549565b8361478d565b6000601f8411600181146149b3576000851561499b5750838201355b600019600387901b1c1916600186901b178355611148565b600083815260209020601f19861690835b828110156149e457868501358255602094850194600190920191016149c4565b5086821015614a015760001960f88860031b161c19848701351681555b505060018560011b0183555050505050565b600081518084526020808501945080840160005b83811015614a4357815187529582019590820190600101614a27565b509495945050505050565b604081526000614a616040830185613c19565b8281036020840152614a738185614a13565b95945050505050565b61ffff861681526001600160a01b038516602082015260a060408201819052600090614aaa90830186613c19565b84151560608401528281036080840152614ac48185613c19565b98975050505050505050565b60008060408385031215614ae357600080fd5b505080516020909101519092909150565b600060208284031215614b0657600080fd5b81516001600160401b03811115614b1c57600080fd5b6127b584828501614655565b61ffff85168152608060208201526000614b456080830186613c19565b6001600160401b038516604084015282810360608401526144468185613c19565b600060208284031215614b7857600080fd5b8151611dd281613de4565b60008251614b95818460208701613bf5565b9190910192915050565b602081526000611dd26020830184614a13565b8281526040602082015260006127b56040830184613c19565b61ffff8616815260a060208201526000614be860a0830187613c19565b6001600160401b03861660408401528281036060840152614c098186613c19565b90508281036080840152614ac48185613c19565b61ffff8716815260c060208201526000614c3a60c0830188613c19565b8281036040840152614c4c8188613c19565b6001600160a01b0387811660608601528616608085015283810360a08501529050614c778185613c19565b9998505050505050505050565b6001600160a01b0385811682528416602082015260408101839052608060608201819052600090614cb790830184613c19565b9695505050505050565b600060208284031215614cd357600080fd5b8151611dd281613b5d56fea264697066735822122066b33c1e2f3827ae28067cb81d65fc7637752bd0d3e0927c61c830f3fd2cda3b64736f6c63430008110033",
  "linkReferences": {},
  "deployedLinkReferences": {}
}